{
  "contractName": "TestFactory",
  "abi": [
    {
      "inputs": [],
      "stateMutability": "nonpayable",
      "type": "constructor"
    },
    {
      "anonymous": false,
      "inputs": [
        {
          "indexed": true,
          "internalType": "address",
          "name": "owner",
          "type": "address"
        },
        {
          "indexed": true,
          "internalType": "address",
          "name": "approved",
          "type": "address"
        },
        {
          "indexed": true,
          "internalType": "uint256",
          "name": "tokenId",
          "type": "uint256"
        }
      ],
      "name": "Approval",
      "type": "event"
    },
    {
      "anonymous": false,
      "inputs": [
        {
          "indexed": true,
          "internalType": "address",
          "name": "owner",
          "type": "address"
        },
        {
          "indexed": true,
          "internalType": "address",
          "name": "operator",
          "type": "address"
        },
        {
          "indexed": false,
          "internalType": "bool",
          "name": "approved",
          "type": "bool"
        }
      ],
      "name": "ApprovalForAll",
      "type": "event"
    },
    {
      "anonymous": false,
      "inputs": [
        {
          "indexed": true,
          "internalType": "address",
          "name": "from",
          "type": "address"
        },
        {
          "indexed": true,
          "internalType": "address",
          "name": "to",
          "type": "address"
        },
        {
          "indexed": true,
          "internalType": "uint256",
          "name": "tokenId",
          "type": "uint256"
        }
      ],
      "name": "Transfer",
      "type": "event"
    },
    {
      "inputs": [
        {
          "internalType": "address",
          "name": "to",
          "type": "address"
        },
        {
          "internalType": "uint256",
          "name": "tokenId",
          "type": "uint256"
        }
      ],
      "name": "approve",
      "outputs": [],
      "stateMutability": "nonpayable",
      "type": "function"
    },
    {
      "inputs": [
        {
          "internalType": "address",
          "name": "owner",
          "type": "address"
        }
      ],
      "name": "balanceOf",
      "outputs": [
        {
          "internalType": "uint256",
          "name": "",
          "type": "uint256"
        }
      ],
      "stateMutability": "view",
      "type": "function",
      "constant": true
    },
    {
      "inputs": [
        {
          "internalType": "uint256",
          "name": "tokenId",
          "type": "uint256"
        }
      ],
      "name": "getApproved",
      "outputs": [
        {
          "internalType": "address",
          "name": "",
          "type": "address"
        }
      ],
      "stateMutability": "view",
      "type": "function",
      "constant": true
    },
    {
      "inputs": [
        {
          "internalType": "address",
          "name": "owner",
          "type": "address"
        },
        {
          "internalType": "address",
          "name": "operator",
          "type": "address"
        }
      ],
      "name": "isApprovedForAll",
      "outputs": [
        {
          "internalType": "bool",
          "name": "",
          "type": "bool"
        }
      ],
      "stateMutability": "view",
      "type": "function",
      "constant": true
    },
    {
      "inputs": [],
      "name": "name",
      "outputs": [
        {
          "internalType": "string",
          "name": "",
          "type": "string"
        }
      ],
      "stateMutability": "view",
      "type": "function",
      "constant": true
    },
    {
      "inputs": [
        {
          "internalType": "uint256",
          "name": "tokenId",
          "type": "uint256"
        }
      ],
      "name": "ownerOf",
      "outputs": [
        {
          "internalType": "address",
          "name": "",
          "type": "address"
        }
      ],
      "stateMutability": "view",
      "type": "function",
      "constant": true
    },
    {
      "inputs": [
        {
          "internalType": "address",
          "name": "from",
          "type": "address"
        },
        {
          "internalType": "address",
          "name": "to",
          "type": "address"
        },
        {
          "internalType": "uint256",
          "name": "tokenId",
          "type": "uint256"
        }
      ],
      "name": "safeTransferFrom",
      "outputs": [],
      "stateMutability": "nonpayable",
      "type": "function"
    },
    {
      "inputs": [
        {
          "internalType": "address",
          "name": "from",
          "type": "address"
        },
        {
          "internalType": "address",
          "name": "to",
          "type": "address"
        },
        {
          "internalType": "uint256",
          "name": "tokenId",
          "type": "uint256"
        },
        {
          "internalType": "bytes",
          "name": "_data",
          "type": "bytes"
        }
      ],
      "name": "safeTransferFrom",
      "outputs": [],
      "stateMutability": "nonpayable",
      "type": "function"
    },
    {
      "inputs": [
        {
          "internalType": "address",
          "name": "operator",
          "type": "address"
        },
        {
          "internalType": "bool",
          "name": "approved",
          "type": "bool"
        }
      ],
      "name": "setApprovalForAll",
      "outputs": [],
      "stateMutability": "nonpayable",
      "type": "function"
    },
    {
      "inputs": [
        {
          "internalType": "bytes4",
          "name": "interfaceId",
          "type": "bytes4"
        }
      ],
      "name": "supportsInterface",
      "outputs": [
        {
          "internalType": "bool",
          "name": "",
          "type": "bool"
        }
      ],
      "stateMutability": "view",
      "type": "function",
      "constant": true
    },
    {
      "inputs": [],
      "name": "symbol",
      "outputs": [
        {
          "internalType": "string",
          "name": "",
          "type": "string"
        }
      ],
      "stateMutability": "view",
      "type": "function",
      "constant": true
    },
    {
      "inputs": [
        {
          "internalType": "address",
          "name": "from",
          "type": "address"
        },
        {
          "internalType": "address",
          "name": "to",
          "type": "address"
        },
        {
          "internalType": "uint256",
          "name": "tokenId",
          "type": "uint256"
        }
      ],
      "name": "transferFrom",
      "outputs": [],
      "stateMutability": "nonpayable",
      "type": "function"
    },
    {
      "inputs": [
        {
          "internalType": "string",
          "name": "link",
          "type": "string"
        }
      ],
      "name": "mintTo",
      "outputs": [
        {
          "internalType": "uint256",
          "name": "",
          "type": "uint256"
        }
      ],
      "stateMutability": "nonpayable",
      "type": "function"
    },
    {
      "inputs": [
        {
          "internalType": "uint256",
          "name": "_tokenId",
          "type": "uint256"
        }
      ],
      "name": "tokenURI",
      "outputs": [
        {
          "internalType": "string",
          "name": "",
          "type": "string"
        }
      ],
      "stateMutability": "view",
      "type": "function",
      "constant": true
    }
  ],
  "bytecode": "0x608060405260006006553480156200001657600080fd5b506040518060400160405280600a81526020017f7465737420746f6b656e000000000000000000000000000000000000000000008152506040518060400160405280600381526020017f545354000000000000000000000000000000000000000000000000000000000081525081600090805190602001906200009b929190620000bd565b508060019080519060200190620000b4929190620000bd565b505050620001d2565b828054620000cb906200016d565b90600052602060002090601f016020900481019282620000ef57600085556200013b565b82601f106200010a57805160ff19168380011785556200013b565b828001600101855582156200013b579182015b828111156200013a5782518255916020019190600101906200011d565b5b5090506200014a91906200014e565b5090565b5b80821115620001695760008160009055506001016200014f565b5090565b600060028204905060018216806200018657607f821691505b602082108114156200019d576200019c620001a3565b5b50919050565b7f4e487b7100000000000000000000000000000000000000000000000000000000600052602260045260246000fd5b61267880620001e26000396000f3fe608060405234801561001057600080fd5b50600436106100ea5760003560e01c80636352211e1161008c578063a22cb46511610066578063a22cb4651461026f578063b88d4fde1461028b578063c87b56dd146102a7578063e985e9c5146102d7576100ea565b80636352211e146101f157806370a082311461022157806395d89b4114610251576100ea565b8063095ea7b3116100c8578063095ea7b31461016d57806318b9948d1461018957806323b872dd146101b957806342842e0e146101d5576100ea565b806301ffc9a7146100ef57806306fdde031461011f578063081812fc1461013d575b600080fd5b610109600480360381019061010491906118d1565b610307565b6040516101169190611c91565b60405180910390f35b6101276103e9565b6040516101349190611cac565b60405180910390f35b61015760048036038101906101529190611974565b61047b565b6040516101649190611c2a565b60405180910390f35b61018760048036038101906101829190611891565b610500565b005b6101a3600480360381019061019e919061192b565b610618565b6040516101b09190611e8e565b60405180910390f35b6101d360048036038101906101ce919061177b565b610668565b005b6101ef60048036038101906101ea919061177b565b6106c8565b005b61020b60048036038101906102069190611974565b6106e8565b6040516102189190611c2a565b60405180910390f35b61023b6004803603810190610236919061170e565b61079a565b6040516102489190611e8e565b60405180910390f35b610259610852565b6040516102669190611cac565b60405180910390f35b61028960048036038101906102849190611851565b6108e4565b005b6102a560048036038101906102a091906117ce565b610a65565b005b6102c160048036038101906102bc9190611974565b610ac7565b6040516102ce9190611cac565b60405180910390f35b6102f160048036038101906102ec919061173b565b610bb4565b6040516102fe9190611c91565b60405180910390f35b60007f80ac58cd000000000000000000000000000000000000000000000000000000007bffffffffffffffffffffffffffffffffffffffffffffffffffffffff1916827bffffffffffffffffffffffffffffffffffffffffffffffffffffffff191614806103d257507f5b5e139f000000000000000000000000000000000000000000000000000000007bffffffffffffffffffffffffffffffffffffffffffffffffffffffff1916827bffffffffffffffffffffffffffffffffffffffffffffffffffffffff1916145b806103e257506103e182610c48565b5b9050919050565b6060600080546103f8906120a8565b80601f0160208091040260200160405190810160405280929190818152602001828054610424906120a8565b80156104715780601f1061044657610100808354040283529160200191610471565b820191906000526020600020905b81548152906001019060200180831161045457829003601f168201915b5050505050905090565b600061048682610cb2565b6104c5576040517f08c379a00000000000000000000000000000000000000000000000000000000081526004016104bc90611dee565b60405180910390fd5b6004600083815260200190815260200160002060009054906101000a900473ffffffffffffffffffffffffffffffffffffffff169050919050565b600061050b826106e8565b90508073ffffffffffffffffffffffffffffffffffffffff168373ffffffffffffffffffffffffffffffffffffffff16141561057c576040517f08c379a000000000000000000000000000000000000000000000000000000000815260040161057390611e4e565b60405180910390fd5b8073ffffffffffffffffffffffffffffffffffffffff1661059b610d1e565b73ffffffffffffffffffffffffffffffffffffffff1614806105ca57506105c9816105c4610d1e565b610bb4565b5b610609576040517f08c379a000000000000000000000000000000000000000000000000000000000815260040161060090611d6e565b60405180910390fd5b6106138383610d26565b505050565b600080610623610ddf565b905061062f3382610df5565b82600760008381526020019081526020016000209080519060200190610656929190611522565b5061065f610fc3565b80915050919050565b610679610673610d1e565b82610fdd565b6106b8576040517f08c379a00000000000000000000000000000000000000000000000000000000081526004016106af90611e6e565b60405180910390fd5b6106c38383836110bb565b505050565b6106e383838360405180602001604052806000815250610a65565b505050565b6000806002600084815260200190815260200160002060009054906101000a900473ffffffffffffffffffffffffffffffffffffffff169050600073ffffffffffffffffffffffffffffffffffffffff168173ffffffffffffffffffffffffffffffffffffffff161415610791576040517f08c379a000000000000000000000000000000000000000000000000000000000815260040161078890611dae565b60405180910390fd5b80915050919050565b60008073ffffffffffffffffffffffffffffffffffffffff168273ffffffffffffffffffffffffffffffffffffffff16141561080b576040517f08c379a000000000000000000000000000000000000000000000000000000000815260040161080290611d8e565b60405180910390fd5b600360008373ffffffffffffffffffffffffffffffffffffffff1673ffffffffffffffffffffffffffffffffffffffff168152602001908152602001600020549050919050565b606060018054610861906120a8565b80601f016020809104026020016040519081016040528092919081815260200182805461088d906120a8565b80156108da5780601f106108af576101008083540402835291602001916108da565b820191906000526020600020905b8154815290600101906020018083116108bd57829003601f168201915b5050505050905090565b6108ec610d1e565b73ffffffffffffffffffffffffffffffffffffffff168273ffffffffffffffffffffffffffffffffffffffff16141561095a576040517f08c379a000000000000000000000000000000000000000000000000000000000815260040161095190611d2e565b60405180910390fd5b8060056000610967610d1e565b73ffffffffffffffffffffffffffffffffffffffff1673ffffffffffffffffffffffffffffffffffffffff16815260200190815260200160002060008473ffffffffffffffffffffffffffffffffffffffff1673ffffffffffffffffffffffffffffffffffffffff16815260200190815260200160002060006101000a81548160ff0219169083151502179055508173ffffffffffffffffffffffffffffffffffffffff16610a14610d1e565b73ffffffffffffffffffffffffffffffffffffffff167f17307eab39ab6107e8899845ad3d59bd9653f200f220920489ca2b5937696c3183604051610a599190611c91565b60405180910390a35050565b610a76610a70610d1e565b83610fdd565b610ab5576040517f08c379a0000000000000000000000000000000000000000000000000000000008152600401610aac90611e6e565b60405180910390fd5b610ac184848484611317565b50505050565b6060610ad282610cb2565b610b11576040517f08c379a0000000000000000000000000000000000000000000000000000000008152600401610b0890611e2e565b60405180910390fd5b600760008381526020019081526020016000208054610b2f906120a8565b80601f0160208091040260200160405190810160405280929190818152602001828054610b5b906120a8565b8015610ba85780601f10610b7d57610100808354040283529160200191610ba8565b820191906000526020600020905b815481529060010190602001808311610b8b57829003601f168201915b50505050509050919050565b6000600560008473ffffffffffffffffffffffffffffffffffffffff1673ffffffffffffffffffffffffffffffffffffffff16815260200190815260200160002060008373ffffffffffffffffffffffffffffffffffffffff1673ffffffffffffffffffffffffffffffffffffffff16815260200190815260200160002060009054906101000a900460ff16905092915050565b60007f01ffc9a7000000000000000000000000000000000000000000000000000000007bffffffffffffffffffffffffffffffffffffffffffffffffffffffff1916827bffffffffffffffffffffffffffffffffffffffffffffffffffffffff1916149050919050565b60008073ffffffffffffffffffffffffffffffffffffffff166002600084815260200190815260200160002060009054906101000a900473ffffffffffffffffffffffffffffffffffffffff1673ffffffffffffffffffffffffffffffffffffffff1614159050919050565b600033905090565b816004600083815260200190815260200160002060006101000a81548173ffffffffffffffffffffffffffffffffffffffff021916908373ffffffffffffffffffffffffffffffffffffffff160217905550808273ffffffffffffffffffffffffffffffffffffffff16610d99836106e8565b73ffffffffffffffffffffffffffffffffffffffff167f8c5be1e5ebec7d5bd14f71427d1e84f3dd0314c0f7b2291e5b200ac8c7c3b92560405160405180910390a45050565b60006001600654610df09190611f68565b905090565b600073ffffffffffffffffffffffffffffffffffffffff168273ffffffffffffffffffffffffffffffffffffffff161415610e65576040517f08c379a0000000000000000000000000000000000000000000000000000000008152600401610e5c90611dce565b60405180910390fd5b610e6e81610cb2565b15610eae576040517f08c379a0000000000000000000000000000000000000000000000000000000008152600401610ea590611cee565b60405180910390fd5b610eba60008383611373565b6001600360008473ffffffffffffffffffffffffffffffffffffffff1673ffffffffffffffffffffffffffffffffffffffff1681526020019081526020016000206000828254610f0a9190611f68565b92505081905550816002600083815260200190815260200160002060006101000a81548173ffffffffffffffffffffffffffffffffffffffff021916908373ffffffffffffffffffffffffffffffffffffffff160217905550808273ffffffffffffffffffffffffffffffffffffffff16600073ffffffffffffffffffffffffffffffffffffffff167fddf252ad1be2c89b69c2b068fc378daa952ba7f163c4a11628f55a4df523b3ef60405160405180910390a45050565b60066000815480929190610fd69061210b565b9190505550565b6000610fe882610cb2565b611027576040517f08c379a000000000000000000000000000000000000000000000000000000000815260040161101e90611d4e565b60405180910390fd5b6000611032836106e8565b90508073ffffffffffffffffffffffffffffffffffffffff168473ffffffffffffffffffffffffffffffffffffffff1614806110a157508373ffffffffffffffffffffffffffffffffffffffff166110898461047b565b73ffffffffffffffffffffffffffffffffffffffff16145b806110b257506110b18185610bb4565b5b91505092915050565b8273ffffffffffffffffffffffffffffffffffffffff166110db826106e8565b73ffffffffffffffffffffffffffffffffffffffff1614611131576040517f08c379a000000000000000000000000000000000000000000000000000000000815260040161112890611e0e565b60405180910390fd5b600073ffffffffffffffffffffffffffffffffffffffff168273ffffffffffffffffffffffffffffffffffffffff1614156111a1576040517f08c379a000000000000000000000000000000000000000000000000000000000815260040161119890611d0e565b60405180910390fd5b6111ac838383611373565b6111b7600082610d26565b6001600360008573ffffffffffffffffffffffffffffffffffffffff1673ffffffffffffffffffffffffffffffffffffffff16815260200190815260200160002060008282546112079190611fbe565b925050819055506001600360008473ffffffffffffffffffffffffffffffffffffffff1673ffffffffffffffffffffffffffffffffffffffff168152602001908152602001600020600082825461125e9190611f68565b92505081905550816002600083815260200190815260200160002060006101000a81548173ffffffffffffffffffffffffffffffffffffffff021916908373ffffffffffffffffffffffffffffffffffffffff160217905550808273ffffffffffffffffffffffffffffffffffffffff168473ffffffffffffffffffffffffffffffffffffffff167fddf252ad1be2c89b69c2b068fc378daa952ba7f163c4a11628f55a4df523b3ef60405160405180910390a4505050565b6113228484846110bb565b61132e84848484611378565b61136d576040517f08c379a000000000000000000000000000000000000000000000000000000000815260040161136490611cce565b60405180910390fd5b50505050565b505050565b60006113998473ffffffffffffffffffffffffffffffffffffffff1661150f565b15611502578373ffffffffffffffffffffffffffffffffffffffff1663150b7a026113c2610d1e565b8786866040518563ffffffff1660e01b81526004016113e49493929190611c45565b602060405180830381600087803b1580156113fe57600080fd5b505af192505050801561142f57506040513d601f19601f8201168201806040525081019061142c91906118fe565b60015b6114b2573d806000811461145f576040519150601f19603f3d011682016040523d82523d6000602084013e611464565b606091505b506000815114156114aa576040517f08c379a00000000000000000000000000000000000000000000000000000000081526004016114a190611cce565b60405180910390fd5b805181602001fd5b63150b7a0260e01b7bffffffffffffffffffffffffffffffffffffffffffffffffffffffff1916817bffffffffffffffffffffffffffffffffffffffffffffffffffffffff191614915050611507565b600190505b949350505050565b600080823b905060008111915050919050565b82805461152e906120a8565b90600052602060002090601f0160209004810192826115505760008555611597565b82601f1061156957805160ff1916838001178555611597565b82800160010185558215611597579182015b8281111561159657825182559160200191906001019061157b565b5b5090506115a491906115a8565b5090565b5b808211156115c15760008160009055506001016115a9565b5090565b60006115d86115d384611ece565b611ea9565b9050828152602081018484840111156115f4576115f36121e6565b5b6115ff848285612066565b509392505050565b600061161a61161584611eff565b611ea9565b905082815260208101848484011115611636576116356121e6565b5b611641848285612066565b509392505050565b600081359050611658816125e6565b92915050565b60008135905061166d816125fd565b92915050565b60008135905061168281612614565b92915050565b60008151905061169781612614565b92915050565b600082601f8301126116b2576116b16121e1565b5b81356116c28482602086016115c5565b91505092915050565b600082601f8301126116e0576116df6121e1565b5b81356116f0848260208601611607565b91505092915050565b6000813590506117088161262b565b92915050565b600060208284031215611724576117236121f0565b5b600061173284828501611649565b91505092915050565b60008060408385031215611752576117516121f0565b5b600061176085828601611649565b925050602061177185828601611649565b9150509250929050565b600080600060608486031215611794576117936121f0565b5b60006117a286828701611649565b93505060206117b386828701611649565b92505060406117c4868287016116f9565b9150509250925092565b600080600080608085870312156117e8576117e76121f0565b5b60006117f687828801611649565b945050602061180787828801611649565b9350506040611818878288016116f9565b925050606085013567ffffffffffffffff811115611839576118386121eb565b5b6118458782880161169d565b91505092959194509250565b60008060408385031215611868576118676121f0565b5b600061187685828601611649565b92505060206118878582860161165e565b9150509250929050565b600080604083850312156118a8576118a76121f0565b5b60006118b685828601611649565b92505060206118c7858286016116f9565b9150509250929050565b6000602082840312156118e7576118e66121f0565b5b60006118f584828501611673565b91505092915050565b600060208284031215611914576119136121f0565b5b600061192284828501611688565b91505092915050565b600060208284031215611941576119406121f0565b5b600082013567ffffffffffffffff81111561195f5761195e6121eb565b5b61196b848285016116cb565b91505092915050565b60006020828403121561198a576119896121f0565b5b6000611998848285016116f9565b91505092915050565b6119aa81611ff2565b82525050565b6119b981612004565b82525050565b60006119ca82611f30565b6119d48185611f46565b93506119e4818560208601612075565b6119ed816121f5565b840191505092915050565b6000611a0382611f3b565b611a0d8185611f57565b9350611a1d818560208601612075565b611a26816121f5565b840191505092915050565b6000611a3e603283611f57565b9150611a4982612206565b604082019050919050565b6000611a61601c83611f57565b9150611a6c82612255565b602082019050919050565b6000611a84602483611f57565b9150611a8f8261227e565b604082019050919050565b6000611aa7601983611f57565b9150611ab2826122cd565b602082019050919050565b6000611aca602c83611f57565b9150611ad5826122f6565b604082019050919050565b6000611aed603883611f57565b9150611af882612345565b604082019050919050565b6000611b10602a83611f57565b9150611b1b82612394565b604082019050919050565b6000611b33602983611f57565b9150611b3e826123e3565b604082019050919050565b6000611b56602083611f57565b9150611b6182612432565b602082019050919050565b6000611b79602c83611f57565b9150611b848261245b565b604082019050919050565b6000611b9c602983611f57565b9150611ba7826124aa565b604082019050919050565b6000611bbf602f83611f57565b9150611bca826124f9565b604082019050919050565b6000611be2602183611f57565b9150611bed82612548565b604082019050919050565b6000611c05603183611f57565b9150611c1082612597565b604082019050919050565b611c248161205c565b82525050565b6000602082019050611c3f60008301846119a1565b92915050565b6000608082019050611c5a60008301876119a1565b611c6760208301866119a1565b611c746040830185611c1b565b8181036060830152611c8681846119bf565b905095945050505050565b6000602082019050611ca660008301846119b0565b92915050565b60006020820190508181036000830152611cc681846119f8565b905092915050565b60006020820190508181036000830152611ce781611a31565b9050919050565b60006020820190508181036000830152611d0781611a54565b9050919050565b60006020820190508181036000830152611d2781611a77565b9050919050565b60006020820190508181036000830152611d4781611a9a565b9050919050565b60006020820190508181036000830152611d6781611abd565b9050919050565b60006020820190508181036000830152611d8781611ae0565b9050919050565b60006020820190508181036000830152611da781611b03565b9050919050565b60006020820190508181036000830152611dc781611b26565b9050919050565b60006020820190508181036000830152611de781611b49565b9050919050565b60006020820190508181036000830152611e0781611b6c565b9050919050565b60006020820190508181036000830152611e2781611b8f565b9050919050565b60006020820190508181036000830152611e4781611bb2565b9050919050565b60006020820190508181036000830152611e6781611bd5565b9050919050565b60006020820190508181036000830152611e8781611bf8565b9050919050565b6000602082019050611ea36000830184611c1b565b92915050565b6000611eb3611ec4565b9050611ebf82826120da565b919050565b6000604051905090565b600067ffffffffffffffff821115611ee957611ee86121b2565b5b611ef2826121f5565b9050602081019050919050565b600067ffffffffffffffff821115611f1a57611f196121b2565b5b611f23826121f5565b9050602081019050919050565b600081519050919050565b600081519050919050565b600082825260208201905092915050565b600082825260208201905092915050565b6000611f738261205c565b9150611f7e8361205c565b9250827fffffffffffffffffffffffffffffffffffffffffffffffffffffffffffffffff03821115611fb357611fb2612154565b5b828201905092915050565b6000611fc98261205c565b9150611fd48361205c565b925082821015611fe757611fe6612154565b5b828203905092915050565b6000611ffd8261203c565b9050919050565b60008115159050919050565b60007fffffffff0000000000000000000000000000000000000000000000000000000082169050919050565b600073ffffffffffffffffffffffffffffffffffffffff82169050919050565b6000819050919050565b82818337600083830152505050565b60005b83811015612093578082015181840152602081019050612078565b838111156120a2576000848401525b50505050565b600060028204905060018216806120c057607f821691505b602082108114156120d4576120d3612183565b5b50919050565b6120e3826121f5565b810181811067ffffffffffffffff82111715612102576121016121b2565b5b80604052505050565b60006121168261205c565b91507fffffffffffffffffffffffffffffffffffffffffffffffffffffffffffffffff82141561214957612148612154565b5b600182019050919050565b7f4e487b7100000000000000000000000000000000000000000000000000000000600052601160045260246000fd5b7f4e487b7100000000000000000000000000000000000000000000000000000000600052602260045260246000fd5b7f4e487b7100000000000000000000000000000000000000000000000000000000600052604160045260246000fd5b600080fd5b600080fd5b600080fd5b600080fd5b6000601f19601f8301169050919050565b7f4552433732313a207472616e7366657220746f206e6f6e20455243373231526560008201527f63656976657220696d706c656d656e7465720000000000000000000000000000602082015250565b7f4552433732313a20746f6b656e20616c7265616479206d696e74656400000000600082015250565b7f4552433732313a207472616e7366657220746f20746865207a65726f2061646460008201527f7265737300000000000000000000000000000000000000000000000000000000602082015250565b7f4552433732313a20617070726f766520746f2063616c6c657200000000000000600082015250565b7f4552433732313a206f70657261746f7220717565727920666f72206e6f6e657860008201527f697374656e7420746f6b656e0000000000000000000000000000000000000000602082015250565b7f4552433732313a20617070726f76652063616c6c6572206973206e6f74206f7760008201527f6e6572206e6f7220617070726f76656420666f7220616c6c0000000000000000602082015250565b7f4552433732313a2062616c616e636520717565727920666f7220746865207a6560008201527f726f206164647265737300000000000000000000000000000000000000000000602082015250565b7f4552433732313a206f776e657220717565727920666f72206e6f6e657869737460008201527f656e7420746f6b656e0000000000000000000000000000000000000000000000602082015250565b7f4552433732313a206d696e7420746f20746865207a65726f2061646472657373600082015250565b7f4552433732313a20617070726f76656420717565727920666f72206e6f6e657860008201527f697374656e7420746f6b656e0000000000000000000000000000000000000000602082015250565b7f4552433732313a207472616e73666572206f6620746f6b656e2074686174206960008201527f73206e6f74206f776e0000000000000000000000000000000000000000000000602082015250565b7f4552433732314d657461646174613a2055524920717565727920666f72206e6f60008201527f6e6578697374656e7420746f6b656e0000000000000000000000000000000000602082015250565b7f4552433732313a20617070726f76616c20746f2063757272656e74206f776e6560008201527f7200000000000000000000000000000000000000000000000000000000000000602082015250565b7f4552433732313a207472616e736665722063616c6c6572206973206e6f74206f60008201527f776e6572206e6f7220617070726f766564000000000000000000000000000000602082015250565b6125ef81611ff2565b81146125fa57600080fd5b50565b61260681612004565b811461261157600080fd5b50565b61261d81612010565b811461262857600080fd5b50565b6126348161205c565b811461263f57600080fd5b5056fea26469706673582212201840589026bb77702fe76dd9772a16b1a64e5e9ae231a9f0f7b064a0ff1a363664736f6c63430008060033",
  "immutableReferences": {},
  "source": "import \"@openzeppelin/contracts/token/ERC721/ERC721.sol\";\r\n\r\n// import \"@openzeppelin/contracts/access/Ownable.sol\";\r\n\r\ncontract TestFactory is ERC721 {\r\n    uint256 private _currentTokenId = 0;\r\n    mapping(uint256 => string) tokenLinks;\r\n\r\n    constructor() ERC721(\"test token\", \"TST\") {}\r\n\r\n    function mintTo(string memory link) public returns (uint256) {\r\n        uint256 newTokenId = _getNextTokenId();\r\n        _mint(msg.sender, newTokenId);\r\n        tokenLinks[newTokenId] = link;\r\n        _incrementTokenId();\r\n        return newTokenId;\r\n    }\r\n\r\n    function tokenURI(uint256 _tokenId)\r\n        public\r\n        view\r\n        virtual\r\n        override\r\n        returns (string memory)\r\n    {\r\n        require(\r\n            _exists(_tokenId),\r\n            \"ERC721Metadata: URI query for nonexistent token\"\r\n        );\r\n        return tokenLinks[_tokenId];\r\n    }\r\n\r\n    function _incrementTokenId() private {\r\n        _currentTokenId++;\r\n    }\r\n\r\n    function _getNextTokenId() private view returns (uint256) {\r\n        return _currentTokenId + 1;\r\n    }\r\n}\r\n",
  "sourcePath": "C:/Users/alber/OneDrive/3course/6semestr/PRACTICE/erc721/contracts/TestFactory.sol",
  "compiler": {
    "name": "solc",
    "version": "0.8.6+commit.11564f7e.Emscripten.clang"
  },
  "schemaVersion": "3.4.1",
  "updatedAt": "2021-07-19T14:31:33.058Z",
  "networkType": "ethereum",
  "devdoc": {
    "kind": "dev",
    "methods": {
      "approve(address,uint256)": {
        "details": "See {IERC721-approve}."
      },
      "balanceOf(address)": {
        "details": "See {IERC721-balanceOf}."
      },
      "getApproved(uint256)": {
        "details": "See {IERC721-getApproved}."
      },
      "isApprovedForAll(address,address)": {
        "details": "See {IERC721-isApprovedForAll}."
      },
      "name()": {
        "details": "See {IERC721Metadata-name}."
      },
      "ownerOf(uint256)": {
        "details": "See {IERC721-ownerOf}."
      },
      "safeTransferFrom(address,address,uint256)": {
        "details": "See {IERC721-safeTransferFrom}."
      },
      "safeTransferFrom(address,address,uint256,bytes)": {
        "details": "See {IERC721-safeTransferFrom}."
      },
      "setApprovalForAll(address,bool)": {
        "details": "See {IERC721-setApprovalForAll}."
      },
      "supportsInterface(bytes4)": {
        "details": "See {IERC165-supportsInterface}."
      },
      "symbol()": {
        "details": "See {IERC721Metadata-symbol}."
      },
      "transferFrom(address,address,uint256)": {
        "details": "See {IERC721-transferFrom}."
      }
    },
    "version": 1
  },
  "userdoc": {
    "kind": "user",
    "methods": {},
    "version": 1
  }
}